{
  "_format": "hh-sol-artifact-1",
  "contractName": "TallyVerifierOnChain",
  "sourceName": "contracts/TallyVerifier.sol",
  "abi": [
    {
      "anonymous": false,
      "inputs": [
        {
          "indexed": true,
          "internalType": "address",
          "name": "sender",
          "type": "address"
        },
        {
          "indexed": false,
          "internalType": "bool",
          "name": "isValid",
          "type": "bool"
        },
        {
          "indexed": false,
          "internalType": "bytes32",
          "name": "proofHash",
          "type": "bytes32"
        }
      ],
      "name": "ProofVerified",
      "type": "event"
    },
    {
      "inputs": [
        {
          "internalType": "uint256[2]",
          "name": "a",
          "type": "uint256[2]"
        },
        {
          "internalType": "uint256[2][2]",
          "name": "b",
          "type": "uint256[2][2]"
        },
        {
          "internalType": "uint256[2]",
          "name": "c",
          "type": "uint256[2]"
        },
        {
          "internalType": "uint256[1]",
          "name": "inputSignals",
          "type": "uint256[1]"
        }
      ],
      "name": "submitTallyProof",
      "outputs": [
        {
          "internalType": "bool",
          "name": "",
          "type": "bool"
        }
      ],
      "stateMutability": "nonpayable",
      "type": "function"
    },
    {
      "inputs": [
        {
          "internalType": "uint256[2]",
          "name": "_pA",
          "type": "uint256[2]"
        },
        {
          "internalType": "uint256[2][2]",
          "name": "_pB",
          "type": "uint256[2][2]"
        },
        {
          "internalType": "uint256[2]",
          "name": "_pC",
          "type": "uint256[2]"
        },
        {
          "internalType": "uint256[1]",
          "name": "_pubSignals",
          "type": "uint256[1]"
        }
      ],
      "name": "verifyProof",
      "outputs": [
        {
          "internalType": "bool",
          "name": "",
          "type": "bool"
        }
      ],
      "stateMutability": "view",
      "type": "function"
    }
  ],
  "bytecode": "0x608060405234801561001057600080fd5b50610eb2806100206000396000f3fe608060405234801561001057600080fd5b50600436106100365760003560e01c806343753b4d1461003b578063e91a8b021461006b575b600080fd5b6100556004803603810190610050919061089b565b61009b565b604051610062919061091f565b60405180910390f35b6100856004803603810190610080919061089b565b6104f7565b604051610092919061091f565b60405180910390f35b60006104c8565b7f30644e72e131a029b85045b68181585d2833e84879b9709143e1f593f000000181106100d3576000805260206000f35b50565b600060405183815284602082015285604082015260408160608360076107d05a03fa915081610109576000805260206000f35b825160408201526020830151606082015260408360808360066107d05a03fa915081610139576000805260206000f35b505050505050565b600060808601600087017f20c1987e2ef0854f052b77dff8e05a08b09f37f60d5b3cd83623136c6eddf4ae81527f13114bab1414ccad4fcf3d69b56628c4050681cf9d5de260a23c888ce0eb132260208201526101e460008801357f294c0ce7c2f0dd85d092b813b7a391bee9fe6026ccb9b2b76e8247c4201c06fd7f081089fce5d03f9aec2e94ce4769cfeafbdf5cec3d4ec36ffda24e9d3fb74c13846100d6565b833582527f30644e72e131a029b85045b68181585d97816a916871ca8d3c208c16d87cfd4760208501357f30644e72e131a029b85045b68181585d97816a916871ca8d3c208c16d87cfd4703066020830152843560408301526020850135606083015260408501356080830152606085013560a08301527f0fa97dbe05c01604f78e309ff166a3d1ca5a169ad7e4c273978b2d12951b3aa860c08301527f1ce3d36ac75c22ca880a3589453dd56d74ebcd3dc0d02bbd68b34d5d7950ca2960e08301527f08854137860062e4ae212836201a5afcfe3f37123650b07b4ccbbe81528d77b16101008301527f061483df5d4504f9f4c4d0db42fc7ff28dca2e621cedbddef0fc1517ba3608686101208301527f234436eb026880fecd883256f20c9bf04145e8d2851134db03fb0750a0eaae3a6101408301527f0477051796d060fccce2dcb65437ad24c044e0ead79119f3eb26f1ac3ce97b7b610160830152600088015161018083015260206000018801516101a08301527f198e9393920d483a7260bfb731fb5d25f1aa493335a9e71297e485b7aef312c26101c08301527f1800deef121f1e76426a00665e5c4479674322d4f75edadd46debd5cd992f6ed6101e08301527f090689d0585ff075ec9e99ad690c3395bc4b313370b38ef355acdadcd122975b6102008301527f12c85ea5db8c6deb4aab71808dcb408fe3d1e7690c43d37b4ce6cc0166fa7daa610220830152853561024083015260208601356102608301527f2de266d8217837eb60df2636152766dfa837289e2fd4ee8d61aa420b71f53caa6102808301527f1acf4431ae241e76ab2a08930495b869e7b4c1d5550f197b84f80a7936237ddf6102a08301527f18e8532917f84a540b37775522dc808fff8796d2fe5eaf1cb9d8cfb978708f076102c08301527f267ae472bc31f6fc9a4ae3e663c7fb364ed1121acceb9efcdade4ac58d00c9d26102e08301526020826103008460086107d05a03fa82518116935050505095945050505050565b60405161038081016040526104e060008401356100a2565b6104ed818486888a610141565b8060005260206000f35b60008061061a866002806020026040519081016040528092919082600260200280828437600081840152601f19601f82011690508083019250505050505086600280602002604051908101604052809291906000905b828210156105a1578382604002016002806020026040519081016040528092919082600260200280828437600081840152601f19601f8201169050808301925050505050508152602001906001019061054d565b50505050866002806020026040519081016040528092919082600260200280828437600081840152601f19601f820116905080830192505050505050866001806020026040519081016040528092919082600160200280828437600081840152601f19601f8201169050808301925050505050506106ea565b90508061065c576040517f08c379a000000000000000000000000000000000000000000000000000000000815260040161065390610997565b60405180910390fd5b6000868686866040516020016106759493929190610a9f565b6040516020818303038152906040528051906020012090503373ffffffffffffffffffffffffffffffffffffffff167fa4b608d5bc20cd098913e8867c35f42efe2212ec0182f845e1d8fc70a7eef01583836040516106d5929190610aff565b60405180910390a28192505050949350505050565b60008060003073ffffffffffffffffffffffffffffffffffffffff168787878760405160240161071d9493929190610d54565b6040516020818303038152906040527f43753b4d000000000000000000000000000000000000000000000000000000007bffffffffffffffffffffffffffffffffffffffffffffffffffffffff19166020820180517bffffffffffffffffffffffffffffffffffffffffffffffffffffffff83818316178352505050506040516107a79190610e0c565b600060405180830381855afa9150503d80600081146107e2576040519150601f19603f3d011682016040523d82523d6000602084013e6107e7565b606091505b50915091508115806107fa575060208151105b1561080a57600092505050610823565b8080602001905181019061081e9190610e4f565b925050505b949350505050565b600080fd5b600080fd5b60008190508260206002028201111561085157610850610830565b5b92915050565b60008190508260406002028201111561087357610872610830565b5b92915050565b60008190508260206001028201111561089557610894610830565b5b92915050565b60008060008061012085870312156108b6576108b561082b565b5b60006108c487828801610835565b94505060406108d587828801610857565b93505060c06108e687828801610835565b9250506101006108f887828801610879565b91505092959194509250565b60008115159050919050565b61091981610904565b82525050565b60006020820190506109346000830184610910565b92915050565b600082825260208201905092915050565b7f496e76616c69642070726f6f6600000000000000000000000000000000000000600082015250565b6000610981600d8361093a565b915061098c8261094b565b602082019050919050565b600060208201905081810360008301526109b081610974565b9050919050565b82818337505050565b6109cc604083836109b7565b5050565b600060029050919050565b600081905092915050565b6000819050919050565b6109fc604083836109b7565b5050565b6000610a0c83836109f0565b60408301905092915050565b600082905092915050565b6000604082019050919050565b610a39816109d0565b610a4381846109db565b9250610a4e826109e6565b8060005b83811015610a8757610a648284610a18565b610a6e8782610a00565b9650610a7983610a23565b925050600181019050610a52565b505050505050565b610a9b602083836109b7565b5050565b600061012082019050610ab560008301876109c0565b610ac26040830186610a30565b610acf60c08301856109c0565b610add610100830184610a8f565b95945050505050565b6000819050919050565b610af981610ae6565b82525050565b6000604082019050610b146000830185610910565b610b216020830184610af0565b9392505050565b600060029050919050565b600081905092915050565b6000819050919050565b6000819050919050565b610b5b81610b48565b82525050565b6000610b6d8383610b52565b60208301905092915050565b6000602082019050919050565b610b8f81610b28565b610b998184610b33565b9250610ba482610b3e565b8060005b83811015610bd5578151610bbc8782610b61565b9650610bc783610b79565b925050600181019050610ba8565b505050505050565b600060029050919050565b6000819050919050565b600081905092915050565b610c0681610b28565b610c108184610bf2565b9250610c1b82610b3e565b8060005b83811015610c4c578151610c338782610b61565b9650610c3e83610b79565b925050600181019050610c1f565b505050505050565b6000610c608383610bfd565b60408301905092915050565b6000602082019050919050565b610c8281610bdd565b610c8c81846109db565b9250610c9782610be8565b8060005b83811015610cc8578151610caf8782610c54565b9650610cba83610c6c565b925050600181019050610c9b565b505050505050565b600060019050919050565b600081905092915050565b6000819050919050565b6000602082019050919050565b610d0681610cd0565b610d108184610cdb565b9250610d1b82610ce6565b8060005b83811015610d4c578151610d338782610b61565b9650610d3e83610cf0565b925050600181019050610d1f565b505050505050565b600061012082019050610d6a6000830187610b86565b610d776040830186610c79565b610d8460c0830185610b86565b610d92610100830184610cfd565b95945050505050565b600081519050919050565b600081905092915050565b60005b83811015610dcf578082015181840152602081019050610db4565b60008484015250505050565b6000610de682610d9b565b610df08185610da6565b9350610e00818560208601610db1565b80840191505092915050565b6000610e188284610ddb565b915081905092915050565b610e2c81610904565b8114610e3757600080fd5b50565b600081519050610e4981610e23565b92915050565b600060208284031215610e6557610e6461082b565b5b6000610e7384828501610e3a565b9150509291505056fea26469706673582212203d5d1fa6443f230563a5ad978eeb7562109ac209bd350ddabca28cf2836695d264736f6c63430008140033",
  "linkReferences": {},
  "deployedLinkReferences": {}
}