{
  "_format": "hh-sol-artifact-1",
  "contractName": "E_Voting",
  "sourceName": "contracts/E_Voting.sol",
  "abi": [
    {
      "inputs": [],
      "stateMutability": "nonpayable",
      "type": "constructor"
    },
    {
      "anonymous": false,
      "inputs": [],
      "name": "AllTrusteesAgreed",
      "type": "event"
    },
    {
      "anonymous": false,
      "inputs": [
        {
          "indexed": false,
          "internalType": "uint256",
          "name": "id",
          "type": "uint256"
        },
        {
          "indexed": false,
          "internalType": "string",
          "name": "name",
          "type": "string"
        }
      ],
      "name": "CandidateAdded",
      "type": "event"
    },
    {
      "anonymous": false,
      "inputs": [
        {
          "indexed": true,
          "internalType": "uint256",
          "name": "candidateId",
          "type": "uint256"
        },
        {
          "indexed": false,
          "internalType": "uint256[2]",
          "name": "C1_total",
          "type": "uint256[2]"
        },
        {
          "indexed": false,
          "internalType": "uint256[2]",
          "name": "C2_total",
          "type": "uint256[2]"
        }
      ],
      "name": "CipherTotalPublished",
      "type": "event"
    },
    {
      "anonymous": false,
      "inputs": [
        {
          "indexed": false,
          "internalType": "string",
          "name": "electionId",
          "type": "string"
        },
        {
          "indexed": false,
          "internalType": "string",
          "name": "name",
          "type": "string"
        }
      ],
      "name": "ElectionCreated",
      "type": "event"
    },
    {
      "anonymous": false,
      "inputs": [],
      "name": "ElectionEnded",
      "type": "event"
    },
    {
      "anonymous": false,
      "inputs": [
        {
          "indexed": false,
          "internalType": "bytes",
          "name": "epk",
          "type": "bytes"
        }
      ],
      "name": "EpkPublished",
      "type": "event"
    },
    {
      "anonymous": false,
      "inputs": [
        {
          "indexed": false,
          "internalType": "bytes32",
          "name": "hashAllOnChain",
          "type": "bytes32"
        }
      ],
      "name": "HashAllOnChainPublished",
      "type": "event"
    },
    {
      "anonymous": false,
      "inputs": [
        {
          "indexed": false,
          "internalType": "bytes32",
          "name": "root",
          "type": "bytes32"
        }
      ],
      "name": "MerkleRootUpdated",
      "type": "event"
    },
    {
      "anonymous": false,
      "inputs": [
        {
          "indexed": false,
          "internalType": "address",
          "name": "trustee",
          "type": "address"
        }
      ],
      "name": "PartialDecryptionFailed",
      "type": "event"
    },
    {
      "anonymous": false,
      "inputs": [
        {
          "indexed": true,
          "internalType": "address",
          "name": "trustee",
          "type": "address"
        },
        {
          "indexed": false,
          "internalType": "uint256[2][]",
          "name": "D_points",
          "type": "uint256[2][]"
        }
      ],
      "name": "PartialDecryptionSubmitted",
      "type": "event"
    },
    {
      "anonymous": false,
      "inputs": [
        {
          "indexed": true,
          "internalType": "address",
          "name": "trustee",
          "type": "address"
        }
      ],
      "name": "PartialDecryptionVerified",
      "type": "event"
    },
    {
      "anonymous": false,
      "inputs": [
        {
          "indexed": true,
          "internalType": "address",
          "name": "trustee",
          "type": "address"
        }
      ],
      "name": "TrusteeRegistered",
      "type": "event"
    },
    {
      "anonymous": false,
      "inputs": [
        {
          "indexed": true,
          "internalType": "bytes32",
          "name": "nullifier",
          "type": "bytes32"
        },
        {
          "indexed": true,
          "internalType": "bytes32",
          "name": "hashCipher",
          "type": "bytes32"
        },
        {
          "indexed": false,
          "internalType": "string",
          "name": "cid",
          "type": "string"
        }
      ],
      "name": "VotePublished",
      "type": "event"
    },
    {
      "inputs": [
        {
          "internalType": "string",
          "name": "_name",
          "type": "string"
        }
      ],
      "name": "addCandidate",
      "outputs": [],
      "stateMutability": "nonpayable",
      "type": "function"
    },
    {
      "inputs": [],
      "name": "admin",
      "outputs": [
        {
          "internalType": "address",
          "name": "",
          "type": "address"
        }
      ],
      "stateMutability": "view",
      "type": "function"
    },
    {
      "inputs": [],
      "name": "aggregator",
      "outputs": [
        {
          "internalType": "address",
          "name": "",
          "type": "address"
        }
      ],
      "stateMutability": "view",
      "type": "function"
    },
    {
      "inputs": [
        {
          "internalType": "uint256",
          "name": "",
          "type": "uint256"
        }
      ],
      "name": "candidates",
      "outputs": [
        {
          "internalType": "uint256",
          "name": "id",
          "type": "uint256"
        },
        {
          "internalType": "string",
          "name": "name",
          "type": "string"
        },
        {
          "internalType": "uint256",
          "name": "voteCount",
          "type": "uint256"
        }
      ],
      "stateMutability": "view",
      "type": "function"
    },
    {
      "inputs": [],
      "name": "endElection",
      "outputs": [],
      "stateMutability": "nonpayable",
      "type": "function"
    },
    {
      "inputs": [],
      "name": "epk",
      "outputs": [
        {
          "internalType": "bytes",
          "name": "",
          "type": "bytes"
        }
      ],
      "stateMutability": "view",
      "type": "function"
    },
    {
      "inputs": [],
      "name": "getCandidateCount",
      "outputs": [
        {
          "internalType": "uint256",
          "name": "",
          "type": "uint256"
        }
      ],
      "stateMutability": "view",
      "type": "function"
    },
    {
      "inputs": [
        {
          "internalType": "address",
          "name": "",
          "type": "address"
        }
      ],
      "name": "hasPublished",
      "outputs": [
        {
          "internalType": "bool",
          "name": "",
          "type": "bool"
        }
      ],
      "stateMutability": "view",
      "type": "function"
    },
    {
      "inputs": [],
      "name": "hashAllOnChain",
      "outputs": [
        {
          "internalType": "bytes32",
          "name": "",
          "type": "bytes32"
        }
      ],
      "stateMutability": "view",
      "type": "function"
    },
    {
      "inputs": [],
      "name": "info",
      "outputs": [
        {
          "internalType": "string",
          "name": "electionId",
          "type": "string"
        },
        {
          "internalType": "string",
          "name": "name",
          "type": "string"
        },
        {
          "internalType": "uint256",
          "name": "startDate",
          "type": "uint256"
        },
        {
          "internalType": "uint256",
          "name": "endDate",
          "type": "uint256"
        },
        {
          "internalType": "enum E_Voting.ElectionStatus",
          "name": "status",
          "type": "uint8"
        },
        {
          "internalType": "bytes32",
          "name": "merkleRoot",
          "type": "bytes32"
        }
      ],
      "stateMutability": "view",
      "type": "function"
    },
    {
      "inputs": [
        {
          "internalType": "bytes32",
          "name": "",
          "type": "bytes32"
        }
      ],
      "name": "isNullifierUsed",
      "outputs": [
        {
          "internalType": "bool",
          "name": "",
          "type": "bool"
        }
      ],
      "stateMutability": "view",
      "type": "function"
    },
    {
      "inputs": [
        {
          "internalType": "address",
          "name": "",
          "type": "address"
        }
      ],
      "name": "isTrustee",
      "outputs": [
        {
          "internalType": "bool",
          "name": "",
          "type": "bool"
        }
      ],
      "stateMutability": "view",
      "type": "function"
    },
    {
      "inputs": [
        {
          "internalType": "address",
          "name": "",
          "type": "address"
        }
      ],
      "name": "lastVerifyPassed",
      "outputs": [
        {
          "internalType": "bool",
          "name": "",
          "type": "bool"
        }
      ],
      "stateMutability": "view",
      "type": "function"
    },
    {
      "inputs": [],
      "name": "minRequired",
      "outputs": [
        {
          "internalType": "uint256",
          "name": "",
          "type": "uint256"
        }
      ],
      "stateMutability": "view",
      "type": "function"
    },
    {
      "inputs": [
        {
          "internalType": "uint256[2][]",
          "name": "C1_list",
          "type": "uint256[2][]"
        },
        {
          "internalType": "uint256[2][]",
          "name": "C2_list",
          "type": "uint256[2][]"
        }
      ],
      "name": "publishAllCipherTotals",
      "outputs": [],
      "stateMutability": "nonpayable",
      "type": "function"
    },
    {
      "inputs": [
        {
          "internalType": "bytes",
          "name": "_epk",
          "type": "bytes"
        }
      ],
      "name": "publishEpk",
      "outputs": [],
      "stateMutability": "nonpayable",
      "type": "function"
    },
    {
      "inputs": [
        {
          "internalType": "bytes32",
          "name": "_hashAllOnChain",
          "type": "bytes32"
        }
      ],
      "name": "publishHashAllOnChain",
      "outputs": [],
      "stateMutability": "nonpayable",
      "type": "function"
    },
    {
      "inputs": [
        {
          "internalType": "uint256[2][]",
          "name": "D_points",
          "type": "uint256[2][]"
        }
      ],
      "name": "publishPartialDecryption",
      "outputs": [],
      "stateMutability": "nonpayable",
      "type": "function"
    },
    {
      "inputs": [
        {
          "internalType": "address[3]",
          "name": "_trustees",
          "type": "address[3]"
        }
      ],
      "name": "registerTrustees",
      "outputs": [],
      "stateMutability": "nonpayable",
      "type": "function"
    },
    {
      "inputs": [
        {
          "internalType": "address",
          "name": "_aggregator",
          "type": "address"
        }
      ],
      "name": "setAggregator",
      "outputs": [],
      "stateMutability": "nonpayable",
      "type": "function"
    },
    {
      "inputs": [
        {
          "internalType": "string",
          "name": "_id",
          "type": "string"
        },
        {
          "internalType": "string",
          "name": "_name",
          "type": "string"
        },
        {
          "internalType": "uint256",
          "name": "_start",
          "type": "uint256"
        },
        {
          "internalType": "uint256",
          "name": "_end",
          "type": "uint256"
        }
      ],
      "name": "setElectionInfo",
      "outputs": [],
      "stateMutability": "nonpayable",
      "type": "function"
    },
    {
      "inputs": [
        {
          "internalType": "bytes32",
          "name": "_root",
          "type": "bytes32"
        }
      ],
      "name": "setMerkleRoot",
      "outputs": [],
      "stateMutability": "nonpayable",
      "type": "function"
    },
    {
      "inputs": [
        {
          "internalType": "bytes32",
          "name": "_nullifier",
          "type": "bytes32"
        },
        {
          "internalType": "bytes32",
          "name": "_hashCipher",
          "type": "bytes32"
        },
        {
          "internalType": "string",
          "name": "_cid",
          "type": "string"
        }
      ],
      "name": "submitVote",
      "outputs": [],
      "stateMutability": "nonpayable",
      "type": "function"
    },
    {
      "inputs": [],
      "name": "thresholdCount",
      "outputs": [
        {
          "internalType": "uint256",
          "name": "",
          "type": "uint256"
        }
      ],
      "stateMutability": "view",
      "type": "function"
    },
    {
      "inputs": [
        {
          "internalType": "address",
          "name": "",
          "type": "address"
        }
      ],
      "name": "trusteeID",
      "outputs": [
        {
          "internalType": "uint256",
          "name": "",
          "type": "uint256"
        }
      ],
      "stateMutability": "view",
      "type": "function"
    },
    {
      "inputs": [
        {
          "internalType": "uint256[2]",
          "name": "pA",
          "type": "uint256[2]"
        },
        {
          "internalType": "uint256[2][2]",
          "name": "pB",
          "type": "uint256[2][2]"
        },
        {
          "internalType": "uint256[2]",
          "name": "pC",
          "type": "uint256[2]"
        },
        {
          "internalType": "uint256[1]",
          "name": "pubSignals",
          "type": "uint256[1]"
        }
      ],
      "name": "verifyPartialProof",
      "outputs": [],
      "stateMutability": "nonpayable",
      "type": "function"
    },
    {
      "inputs": [
        {
          "internalType": "uint256[2]",
          "name": "_pA",
          "type": "uint256[2]"
        },
        {
          "internalType": "uint256[2][2]",
          "name": "_pB",
          "type": "uint256[2][2]"
        },
        {
          "internalType": "uint256[2]",
          "name": "_pC",
          "type": "uint256[2]"
        },
        {
          "internalType": "uint256[1]",
          "name": "_pubSignals",
          "type": "uint256[1]"
        }
      ],
      "name": "verifyProof",
      "outputs": [
        {
          "internalType": "bool",
          "name": "",
          "type": "bool"
        }
      ],
      "stateMutability": "view",
      "type": "function"
    }
  ],
  "bytecode": "0x608060405234801561001057600080fd5b50336000806101000a81548173ffffffffffffffffffffffffffffffffffffffff021916908373ffffffffffffffffffffffffffffffffffffffff160217905550613b8a806100606000396000f3fe608060405234801561001057600080fd5b50600436106101a95760003560e01c8063370158ea116100f9578063ab989f5511610097578063d8617a6711610071578063d8617a67146104ad578063e4475213146104c9578063f851a440146104f9578063f9120af614610517576101a9565b8063ab989f5514610443578063baacc5bd14610461578063c784cd171461047d576101a9565b806359f78468116100d357806359f78468146103cf5780636604bf03146103d95780637cb64759146103f7578063872d9e6e14610413576101a9565b8063370158ea1461036057806343753b4d14610383578063462e91ec146103b3576101a9565b806322dc7b4c1161016657806329a6e55d1161014057806329a6e55d146102d857806330a56347146102f45780633477ee2e14610312578063368f851314610344576101a9565b806322dc7b4c1461026c578063245a7bfc1461029c578063251060d6146102ba576101a9565b8063052497c6146101ae57806313e26d58146101ca57806315aaa880146101e8578063168e917a146102185780631bdf06f71461023457806322c04fa114610250575b600080fd5b6101c860048036038101906101c39190612319565b610533565b005b6101d26106c2565b6040516101df91906123c7565b60405180910390f35b61020260048036038101906101fd9190612440565b6106c7565b60405161020f91906123c7565b60405180910390f35b610232600480360381019061022d91906124a3565b6106df565b005b61024e60048036038101906102499190612530565b6107f5565b005b61026a60048036038101906102659190612607565b61096b565b005b610286600480360381019061028191906124a3565b610ab2565b6040516102939190612696565b60405180910390f35b6102a4610ad2565b6040516102b191906126c0565b60405180910390f35b6102c2610af8565b6040516102cf91906123c7565b60405180910390f35b6102f260048036038101906102ed9190612741565b610afe565b005b6102fc610d90565b60405161030991906123c7565b60405180910390f35b61032c600480360381019061032791906127aa565b610d9d565b60405161033b93929190612856565b60405180910390f35b61035e600480360381019061035991906128b6565b610e5f565b005b6103686110af565b60405161037a96959493929190612969565b60405180910390f35b61039d60048036038101906103989190612741565b6111f6565b6040516103aa9190612696565b60405180910390f35b6103cd60048036038101906103c891906129d8565b611652565b005b6103d76117a5565b005b6103e1611908565b6040516103ee9190612a21565b60405180910390f35b610411600480360381019061040c91906124a3565b61190e565b005b61042d60048036038101906104289190612440565b6119e0565b60405161043a9190612696565b60405180910390f35b61044b611a00565b6040516104589190612a91565b60405180910390f35b61047b60048036038101906104769190612b09565b611a8e565b005b61049760048036038101906104929190612440565b611b6b565b6040516104a49190612696565b60405180910390f35b6104c760048036038101906104c29190612b56565b611b8b565b005b6104e360048036038101906104de9190612440565b611ec3565b6040516104f09190612696565b60405180910390f35b610501611ee3565b60405161050e91906126c0565b60405180910390f35b610531600480360381019061052c9190612440565b611f07565b005b60008054906101000a900473ffffffffffffffffffffffffffffffffffffffff1673ffffffffffffffffffffffffffffffffffffffff163373ffffffffffffffffffffffffffffffffffffffff16146105c1576040517f08c379a00000000000000000000000000000000000000000000000000000000081526004016105b890612bef565b60405180910390fd5b6040518060c00160405280858152602001848152602001838152602001828152602001600160028111156105f8576105f76128e3565b5b81526020016000801b8152506001600082015181600001908161061b9190612e1b565b5060208201518160010190816106319190612e1b565b50604082015181600201556060820151816003015560808201518160040160006101000a81548160ff02191690836002811115610671576106706128e3565b5b021790555060a082015181600501559050507f1594903932ed8f9b9f2f2bbc15a18c132591e2c4d3730ba56705aa661662f49c84846040516106b4929190612eed565b60405180910390a150505050565b600281565b600c6020528060005260406000206000915090505481565b60008054906101000a900473ffffffffffffffffffffffffffffffffffffffff1673ffffffffffffffffffffffffffffffffffffffff163373ffffffffffffffffffffffffffffffffffffffff161461076d576040517f08c379a000000000000000000000000000000000000000000000000000000000815260040161076490612bef565b60405180910390fd5b6000801b600a54146107b4576040517f08c379a00000000000000000000000000000000000000000000000000000000081526004016107ab90612f70565b60405180910390fd5b80600a819055507f441c2ef1cd25577b68ad08339ad40de8de2cb75d820352e6ad04872e67fb51cd816040516107ea9190612a21565b60405180910390a150565b601060009054906101000a900473ffffffffffffffffffffffffffffffffffffffff1673ffffffffffffffffffffffffffffffffffffffff163373ffffffffffffffffffffffffffffffffffffffff1614610885576040517f08c379a000000000000000000000000000000000000000000000000000000000815260040161087c90612fdc565b60405180910390fd5b8181905084849050146108cd576040517f08c379a00000000000000000000000000000000000000000000000000000000081526004016108c490613048565b60405180910390fd5b60005b84849050811015610964576001816108e89190613097565b7f3f43c5f7b17d028526089f9ba4ba863ef2a26802b48f4f85012a3ec93d4bbcd986868481811061091c5761091b6130cb565b5b905060400201858585818110610935576109346130cb565b5b905060400201604051610949929190613113565b60405180910390a2808061095c9061313c565b9150506108d0565b5050505050565b6001600281111561097f5761097e6128e3565b5b600160040160009054906101000a900460ff1660028111156109a4576109a36128e3565b5b146109e4576040517f08c379a00000000000000000000000000000000000000000000000000000000081526004016109db906131d0565b60405180910390fd5b6009600085815260200190815260200160002060009054906101000a900460ff1615610a45576040517f08c379a0000000000000000000000000000000000000000000000000000000008152600401610a3c9061323c565b60405180910390fd5b60016009600086815260200190815260200160002060006101000a81548160ff02191690831515021790555082847fdecfef833a228bba67aef2aa54c984b21b5713a8e4a58ea1e42db46daf20b8d48484604051610aa4929190613289565b60405180910390a350505050565b60096020528060005260406000206000915054906101000a900460ff1681565b601060009054906101000a900473ffffffffffffffffffffffffffffffffffffffff1681565b600d5481565b600b60003373ffffffffffffffffffffffffffffffffffffffff1673ffffffffffffffffffffffffffffffffffffffff16815260200190815260200160002060009054906101000a900460ff16610b8a576040517f08c379a0000000000000000000000000000000000000000000000000000000008152600401610b81906132f9565b60405180910390fd5b6000610cac856002806020026040519081016040528092919082600260200280828437600081840152601f19601f82011690508083019250505050505085600280602002604051908101604052809291906000905b82821015610c33578382604002016002806020026040519081016040528092919082600260200280828437600081840152601f19601f82011690508083019250505050505081526020019060010190610bdf565b50505050856002806020026040519081016040528092919082600260200280828437600081840152601f19601f820116905080830192505050505050856001806020026040519081016040528092919082600160200280828437600081840152601f19601f820116905080830192505050505050612048565b905080610cee576040517f08c379a0000000000000000000000000000000000000000000000000000000008152600401610ce590613365565b60405180910390fd5b6001600e60003373ffffffffffffffffffffffffffffffffffffffff1673ffffffffffffffffffffffffffffffffffffffff16815260200190815260200160002060006101000a81548160ff0219169083151502179055503373ffffffffffffffffffffffffffffffffffffffff167f461f94abfffacf370cd3915fe79cceea6ccd2356cae317fbb3f7f3bae81cfea060405160405180910390a25050505050565b6000600780549050905090565b60078181548110610dad57600080fd5b9060005260206000209060030201600091509050806000015490806001018054610dd690612c3e565b80601f0160208091040260200160405190810160405280929190818152602001828054610e0290612c3e565b8015610e4f5780601f10610e2457610100808354040283529160200191610e4f565b820191906000526020600020905b815481529060010190602001808311610e3257829003601f168201915b5050505050908060020154905083565b60008054906101000a900473ffffffffffffffffffffffffffffffffffffffff1673ffffffffffffffffffffffffffffffffffffffff163373ffffffffffffffffffffffffffffffffffffffff1614610eed576040517f08c379a0000000000000000000000000000000000000000000000000000000008152600401610ee490612bef565b60405180910390fd5b6000600d5414610f32576040517f08c379a0000000000000000000000000000000000000000000000000000000008152600401610f29906133d1565b60405180910390fd5b60005b60038110156110ab576001600b6000848460038110610f5757610f566130cb565b5b602002016020810190610f6a9190612440565b73ffffffffffffffffffffffffffffffffffffffff1673ffffffffffffffffffffffffffffffffffffffff16815260200190815260200160002060006101000a81548160ff021916908315150217905550600181610fc89190613097565b600c6000848460038110610fdf57610fde6130cb565b5b602002016020810190610ff29190612440565b73ffffffffffffffffffffffffffffffffffffffff1673ffffffffffffffffffffffffffffffffffffffff16815260200190815260200160002081905550818160038110611043576110426130cb565b5b6020020160208101906110569190612440565b73ffffffffffffffffffffffffffffffffffffffff167f85778b4fc65f26951d8cf0de370d55669440118927711dbc86de5ab3904def3160405160405180910390a280806110a39061313c565b915050610f35565b5050565b60018060000180546110c090612c3e565b80601f01602080910402602001604051908101604052809291908181526020018280546110ec90612c3e565b80156111395780601f1061110e57610100808354040283529160200191611139565b820191906000526020600020905b81548152906001019060200180831161111c57829003601f168201915b50505050509080600101805461114e90612c3e565b80601f016020809104026020016040519081016040528092919081815260200182805461117a90612c3e565b80156111c75780601f1061119c576101008083540402835291602001916111c7565b820191906000526020600020905b8154815290600101906020018083116111aa57829003601f168201915b5050505050908060020154908060030154908060040160009054906101000a900460ff16908060050154905086565b6000611623565b7f30644e72e131a029b85045b68181585d2833e84879b9709143e1f593f0000001811061122e576000805260206000f35b50565b600060405183815284602082015285604082015260408160608360076107d05a03fa915081611264576000805260206000f35b825160408201526020830151606082015260408360808360066107d05a03fa915081611294576000805260206000f35b505050505050565b600060808601600087017f2d2bbd05032830e38fbe5b92d97d5308b19d59e04f5a9e3e0b12bfe5781cc41481527f0b6b27a36c650fe495f8e8a74b606e629fbb57ca954fe920cf9793f093fed3f6602082015261133f60008801357f1edd51c662e1c077b99b381d14dbf3a0e0883bd1365f716f15a7fde476d6e1357f0612ebacc2a0f75422c59901603b7063c5862071cb50f9361dbf16b239f9b83784611231565b833582527f30644e72e131a029b85045b68181585d97816a916871ca8d3c208c16d87cfd4760208501357f30644e72e131a029b85045b68181585d97816a916871ca8d3c208c16d87cfd4703066020830152843560408301526020850135606083015260408501356080830152606085013560a08301527f0fa97dbe05c01604f78e309ff166a3d1ca5a169ad7e4c273978b2d12951b3aa860c08301527f1ce3d36ac75c22ca880a3589453dd56d74ebcd3dc0d02bbd68b34d5d7950ca2960e08301527f08854137860062e4ae212836201a5afcfe3f37123650b07b4ccbbe81528d77b16101008301527f061483df5d4504f9f4c4d0db42fc7ff28dca2e621cedbddef0fc1517ba3608686101208301527f234436eb026880fecd883256f20c9bf04145e8d2851134db03fb0750a0eaae3a6101408301527f0477051796d060fccce2dcb65437ad24c044e0ead79119f3eb26f1ac3ce97b7b610160830152600088015161018083015260206000018801516101a08301527f198e9393920d483a7260bfb731fb5d25f1aa493335a9e71297e485b7aef312c26101c08301527f1800deef121f1e76426a00665e5c4479674322d4f75edadd46debd5cd992f6ed6101e08301527f090689d0585ff075ec9e99ad690c3395bc4b313370b38ef355acdadcd122975b6102008301527f12c85ea5db8c6deb4aab71808dcb408fe3d1e7690c43d37b4ce6cc0166fa7daa610220830152853561024083015260208601356102608301527f11b70afe292036f46afdd2ed0e5460269895b1745f46129dba1a192d0f8c98d66102808301527f1d2f1487d4f5637828c5c3f9cb1e442d8919717d2bdadb0d5227bc674d0bd9946102a08301527f2fdc23fa012af4b59310186e90e9ec25a45dd106abbbe8186eb64e1ea31cd37e6102c08301527f03de8f7371c347c713ff13cce3367e69495f61621de0d126e3b9f9dbf1a998e86102e08301526020826103008460086107d05a03fa82518116935050505095945050505050565b604051610380810160405261163b60008401356111fd565b611648818486888a61129c565b8060005260206000f35b60008054906101000a900473ffffffffffffffffffffffffffffffffffffffff1673ffffffffffffffffffffffffffffffffffffffff163373ffffffffffffffffffffffffffffffffffffffff16146116e0576040517f08c379a00000000000000000000000000000000000000000000000000000000081526004016116d790612bef565b60405180910390fd5b6007604051806060016040528060016007805490506116ff9190613097565b8152602001838152602001600081525090806001815401808255809150506001900390600052602060002090600302016000909190919091506000820151816000015560208201518160010190816117579190612e1b565b506040820151816002015550507fe83b2a43e7e82d975c8a0a6d2f045153c869e111136a34d1889ab7b598e396a36007805490508260405161179a9291906133f1565b60405180910390a150565b60008054906101000a900473ffffffffffffffffffffffffffffffffffffffff1673ffffffffffffffffffffffffffffffffffffffff163373ffffffffffffffffffffffffffffffffffffffff1614611833576040517f08c379a000000000000000000000000000000000000000000000000000000000815260040161182a90612bef565b60405180910390fd5b60016002811115611847576118466128e3565b5b600160040160009054906101000a900460ff16600281111561186c5761186b6128e3565b5b146118ac576040517f08c379a00000000000000000000000000000000000000000000000000000000081526004016118a39061346d565b60405180910390fd5b6002600160040160006101000a81548160ff021916908360028111156118d5576118d46128e3565b5b02179055507f66ec723071e4bb646f7b35d31bc2dee8510979bd8c180edd0690d4f5e802f1e460405160405180910390a1565b600a5481565b60008054906101000a900473ffffffffffffffffffffffffffffffffffffffff1673ffffffffffffffffffffffffffffffffffffffff163373ffffffffffffffffffffffffffffffffffffffff161461199c576040517f08c379a000000000000000000000000000000000000000000000000000000000815260040161199390612bef565b60405180910390fd5b806001600501819055507f90004c04698bc3322499a575ed3752dd4abf33e0a7294c06a787a0fe01bea941816040516119d59190612a21565b60405180910390a150565b600f6020528060005260406000206000915054906101000a900460ff1681565b60088054611a0d90612c3e565b80601f0160208091040260200160405190810160405280929190818152602001828054611a3990612c3e565b8015611a865780601f10611a5b57610100808354040283529160200191611a86565b820191906000526020600020905b815481529060010190602001808311611a6957829003601f168201915b505050505081565b60008054906101000a900473ffffffffffffffffffffffffffffffffffffffff1673ffffffffffffffffffffffffffffffffffffffff163373ffffffffffffffffffffffffffffffffffffffff1614611b1c576040517f08c379a0000000000000000000000000000000000000000000000000000000008152600401611b1390612bef565b60405180910390fd5b818160089182611b2d9291906134f3565b507fcbe11c4a798e6399d2bdc5014d77dd62a510f9a2d3e8d17fa579793168e7b2198282604051611b5f9291906135f0565b60405180910390a15050565b600b6020528060005260406000206000915054906101000a900460ff1681565b600b60003373ffffffffffffffffffffffffffffffffffffffff1673ffffffffffffffffffffffffffffffffffffffff16815260200190815260200160002060009054906101000a900460ff16611c17576040517f08c379a0000000000000000000000000000000000000000000000000000000008152600401611c0e906132f9565b60405180910390fd5b600e60003373ffffffffffffffffffffffffffffffffffffffff1673ffffffffffffffffffffffffffffffffffffffff16815260200190815260200160002060009054906101000a900460ff16611ca3576040517f08c379a0000000000000000000000000000000000000000000000000000000008152600401611c9a90613660565b60405180910390fd5b600f60003373ffffffffffffffffffffffffffffffffffffffff1673ffffffffffffffffffffffffffffffffffffffff16815260200190815260200160002060009054906101000a900460ff1615611d30576040517f08c379a0000000000000000000000000000000000000000000000000000000008152600401611d2790612f70565b60405180910390fd5b60008282905011611d76576040517f08c379a0000000000000000000000000000000000000000000000000000000008152600401611d6d906136cc565b60405180910390fd5b6001600f60003373ffffffffffffffffffffffffffffffffffffffff1673ffffffffffffffffffffffffffffffffffffffff16815260200190815260200160002060006101000a81548160ff0219169083151502179055506000600e60003373ffffffffffffffffffffffffffffffffffffffff1673ffffffffffffffffffffffffffffffffffffffff16815260200190815260200160002060006101000a81548160ff021916908315150217905550600d600081548092919060010191905055503373ffffffffffffffffffffffffffffffffffffffff167f84ed87109962c02c163a4cb962b99e44550d6d3e65b0539743f436be6f38a41b8383604051611e809291906137a4565b60405180910390a26002600d5410611ebf577fb5c83c1854b3926d397eff3a576d47f9d1ef613af9b5d8e34fb1f6641428230660405160405180910390a15b5050565b600e6020528060005260406000206000915054906101000a900460ff1681565b60008054906101000a900473ffffffffffffffffffffffffffffffffffffffff1681565b60008054906101000a900473ffffffffffffffffffffffffffffffffffffffff1673ffffffffffffffffffffffffffffffffffffffff163373ffffffffffffffffffffffffffffffffffffffff1614611f95576040517f08c379a0000000000000000000000000000000000000000000000000000000008152600401611f8c90612bef565b60405180910390fd5b600073ffffffffffffffffffffffffffffffffffffffff168173ffffffffffffffffffffffffffffffffffffffff1603612004576040517f08c379a0000000000000000000000000000000000000000000000000000000008152600401611ffb90613814565b60405180910390fd5b80601060006101000a81548173ffffffffffffffffffffffffffffffffffffffff021916908373ffffffffffffffffffffffffffffffffffffffff16021790555050565b60008060003073ffffffffffffffffffffffffffffffffffffffff168787878760405160240161207b9493929190613a61565b6040516020818303038152906040527f43753b4d000000000000000000000000000000000000000000000000000000007bffffffffffffffffffffffffffffffffffffffffffffffffffffffff19166020820180517bffffffffffffffffffffffffffffffffffffffffffffffffffffffff83818316178352505050506040516121059190613ae4565b600060405180830381855afa9150503d8060008114612140576040519150601f19603f3d011682016040523d82523d6000602084013e612145565b606091505b5091509150811580612158575060208151105b1561216857600092505050612181565b8080602001905181019061217c9190613b27565b925050505b949350505050565b6000604051905090565b600080fd5b600080fd5b600080fd5b600080fd5b6000601f19601f8301169050919050565b7f4e487b7100000000000000000000000000000000000000000000000000000000600052604160045260246000fd5b6121f0826121a7565b810181811067ffffffffffffffff8211171561220f5761220e6121b8565b5b80604052505050565b6000612222612189565b905061222e82826121e7565b919050565b600067ffffffffffffffff82111561224e5761224d6121b8565b5b612257826121a7565b9050602081019050919050565b82818337600083830152505050565b600061228661228184612233565b612218565b9050828152602081018484840111156122a2576122a16121a2565b5b6122ad848285612264565b509392505050565b600082601f8301126122ca576122c961219d565b5b81356122da848260208601612273565b91505092915050565b6000819050919050565b6122f6816122e3565b811461230157600080fd5b50565b600081359050612313816122ed565b92915050565b6000806000806080858703121561233357612332612193565b5b600085013567ffffffffffffffff81111561235157612350612198565b5b61235d878288016122b5565b945050602085013567ffffffffffffffff81111561237e5761237d612198565b5b61238a878288016122b5565b935050604061239b87828801612304565b92505060606123ac87828801612304565b91505092959194509250565b6123c1816122e3565b82525050565b60006020820190506123dc60008301846123b8565b92915050565b600073ffffffffffffffffffffffffffffffffffffffff82169050919050565b600061240d826123e2565b9050919050565b61241d81612402565b811461242857600080fd5b50565b60008135905061243a81612414565b92915050565b60006020828403121561245657612455612193565b5b60006124648482850161242b565b91505092915050565b6000819050919050565b6124808161246d565b811461248b57600080fd5b50565b60008135905061249d81612477565b92915050565b6000602082840312156124b9576124b8612193565b5b60006124c78482850161248e565b91505092915050565b600080fd5b600080fd5b60008083601f8401126124f0576124ef61219d565b5b8235905067ffffffffffffffff81111561250d5761250c6124d0565b5b602083019150836040820283011115612529576125286124d5565b5b9250929050565b6000806000806040858703121561254a57612549612193565b5b600085013567ffffffffffffffff81111561256857612567612198565b5b612574878288016124da565b9450945050602085013567ffffffffffffffff81111561259757612596612198565b5b6125a3878288016124da565b925092505092959194509250565b60008083601f8401126125c7576125c661219d565b5b8235905067ffffffffffffffff8111156125e4576125e36124d0565b5b602083019150836001820283011115612600576125ff6124d5565b5b9250929050565b6000806000806060858703121561262157612620612193565b5b600061262f8782880161248e565b94505060206126408782880161248e565b935050604085013567ffffffffffffffff81111561266157612660612198565b5b61266d878288016125b1565b925092505092959194509250565b60008115159050919050565b6126908161267b565b82525050565b60006020820190506126ab6000830184612687565b92915050565b6126ba81612402565b82525050565b60006020820190506126d560008301846126b1565b92915050565b6000819050826020600202820111156126f7576126f66124d5565b5b92915050565b600081905082604060020282011115612719576127186124d5565b5b92915050565b60008190508260206001028201111561273b5761273a6124d5565b5b92915050565b600080600080610120858703121561275c5761275b612193565b5b600061276a878288016126db565b945050604061277b878288016126fd565b93505060c061278c878288016126db565b92505061010061279e8782880161271f565b91505092959194509250565b6000602082840312156127c0576127bf612193565b5b60006127ce84828501612304565b91505092915050565b600081519050919050565b600082825260208201905092915050565b60005b838110156128115780820151818401526020810190506127f6565b60008484015250505050565b6000612828826127d7565b61283281856127e2565b93506128428185602086016127f3565b61284b816121a7565b840191505092915050565b600060608201905061286b60008301866123b8565b818103602083015261287d818561281d565b905061288c60408301846123b8565b949350505050565b6000819050826020600302820111156128b0576128af6124d5565b5b92915050565b6000606082840312156128cc576128cb612193565b5b60006128da84828501612894565b91505092915050565b7f4e487b7100000000000000000000000000000000000000000000000000000000600052602160045260246000fd5b60038110612923576129226128e3565b5b50565b600081905061293482612912565b919050565b600061294482612926565b9050919050565b61295481612939565b82525050565b6129638161246d565b82525050565b600060c0820190508181036000830152612983818961281d565b90508181036020830152612997818861281d565b90506129a660408301876123b8565b6129b360608301866123b8565b6129c0608083018561294b565b6129cd60a083018461295a565b979650505050505050565b6000602082840312156129ee576129ed612193565b5b600082013567ffffffffffffffff811115612a0c57612a0b612198565b5b612a18848285016122b5565b91505092915050565b6000602082019050612a36600083018461295a565b92915050565b600081519050919050565b600082825260208201905092915050565b6000612a6382612a3c565b612a6d8185612a47565b9350612a7d8185602086016127f3565b612a86816121a7565b840191505092915050565b60006020820190508181036000830152612aab8184612a58565b905092915050565b60008083601f840112612ac957612ac861219d565b5b8235905067ffffffffffffffff811115612ae657612ae56124d0565b5b602083019150836001820283011115612b0257612b016124d5565b5b9250929050565b60008060208385031215612b2057612b1f612193565b5b600083013567ffffffffffffffff811115612b3e57612b3d612198565b5b612b4a85828601612ab3565b92509250509250929050565b60008060208385031215612b6d57612b6c612193565b5b600083013567ffffffffffffffff811115612b8b57612b8a612198565b5b612b97858286016124da565b92509250509250929050565b7f4e6f7420617574686f72697a6564000000000000000000000000000000000000600082015250565b6000612bd9600e836127e2565b9150612be482612ba3565b602082019050919050565b60006020820190508181036000830152612c0881612bcc565b9050919050565b7f4e487b7100000000000000000000000000000000000000000000000000000000600052602260045260246000fd5b60006002820490506001821680612c5657607f821691505b602082108103612c6957612c68612c0f565b5b50919050565b60008190508160005260206000209050919050565b60006020601f8301049050919050565b600082821b905092915050565b600060088302612cd17fffffffffffffffffffffffffffffffffffffffffffffffffffffffffffffffff82612c94565b612cdb8683612c94565b95508019841693508086168417925050509392505050565b6000819050919050565b6000612d18612d13612d0e846122e3565b612cf3565b6122e3565b9050919050565b6000819050919050565b612d3283612cfd565b612d46612d3e82612d1f565b848454612ca1565b825550505050565b600090565b612d5b612d4e565b612d66818484612d29565b505050565b5b81811015612d8a57612d7f600082612d53565b600181019050612d6c565b5050565b601f821115612dcf57612da081612c6f565b612da984612c84565b81016020851015612db8578190505b612dcc612dc485612c84565b830182612d6b565b50505b505050565b600082821c905092915050565b6000612df260001984600802612dd4565b1980831691505092915050565b6000612e0b8383612de1565b9150826002028217905092915050565b612e24826127d7565b67ffffffffffffffff811115612e3d57612e3c6121b8565b5b612e478254612c3e565b612e52828285612d8e565b600060209050601f831160018114612e855760008415612e73578287015190505b612e7d8582612dff565b865550612ee5565b601f198416612e9386612c6f565b60005b82811015612ebb57848901518255600182019150602085019450602081019050612e96565b86831015612ed85784890151612ed4601f891682612de1565b8355505b6001600288020188555050505b505050505050565b60006040820190508181036000830152612f07818561281d565b90508181036020830152612f1b818461281d565b90509392505050565b7f416c7265616479207075626c6973686564000000000000000000000000000000600082015250565b6000612f5a6011836127e2565b9150612f6582612f24565b602082019050919050565b60006020820190508181036000830152612f8981612f4d565b9050919050565b7f4e6f7420617574686f72697a6564202861676772656761746f72206f6e6c7929600082015250565b6000612fc66020836127e2565b9150612fd182612f90565b602082019050919050565b60006020820190508181036000830152612ff581612fb9565b9050919050565b7f4c656e677468206d69736d617463680000000000000000000000000000000000600082015250565b6000613032600f836127e2565b915061303d82612ffc565b602082019050919050565b6000602082019050818103600083015261306181613025565b9050919050565b7f4e487b7100000000000000000000000000000000000000000000000000000000600052601160045260246000fd5b60006130a2826122e3565b91506130ad836122e3565b92508282019050808211156130c5576130c4613068565b5b92915050565b7f4e487b7100000000000000000000000000000000000000000000000000000000600052603260045260246000fd5b82818337505050565b61310f604083836130fa565b5050565b60006080820190506131286000830185613103565b6131356040830184613103565b9392505050565b6000613147826122e3565b91507fffffffffffffffffffffffffffffffffffffffffffffffffffffffffffffffff820361317957613178613068565b5b600182019050919050565b7f456c656374696f6e206e6f742061637469766500000000000000000000000000600082015250565b60006131ba6013836127e2565b91506131c582613184565b602082019050919050565b600060208201905081810360008301526131e9816131ad565b9050919050565b7f446f75626c6520766f7465206465746563746564000000000000000000000000600082015250565b60006132266014836127e2565b9150613231826131f0565b602082019050919050565b6000602082019050818103600083015261325581613219565b9050919050565b600061326883856127e2565b9350613275838584612264565b61327e836121a7565b840190509392505050565b600060208201905081810360008301526132a481848661325c565b90509392505050565b7f4e6f742074727573746565000000000000000000000000000000000000000000600082015250565b60006132e3600b836127e2565b91506132ee826132ad565b602082019050919050565b60006020820190508181036000830152613312816132d6565b9050919050565b7f496e76616c6964205a4b2050726f6f6600000000000000000000000000000000600082015250565b600061334f6010836127e2565b915061335a82613319565b602082019050919050565b6000602082019050818103600083015261337e81613342565b9050919050565b7f416c726561647920696e697469616c697a656400000000000000000000000000600082015250565b60006133bb6013836127e2565b91506133c682613385565b602082019050919050565b600060208201905081810360008301526133ea816133ae565b9050919050565b600060408201905061340660008301856123b8565b8181036020830152613418818461281d565b90509392505050565b7f4e6f742061637469766500000000000000000000000000000000000000000000600082015250565b6000613457600a836127e2565b915061346282613421565b602082019050919050565b600060208201905081810360008301526134868161344a565b9050919050565b600082905092915050565b60008190508160005260206000209050919050565b601f8211156134ee576134bf81613498565b6134c884612c84565b810160208510156134d7578190505b6134eb6134e385612c84565b830182612d6b565b50505b505050565b6134fd838361348d565b67ffffffffffffffff811115613516576135156121b8565b5b6135208254612c3e565b61352b8282856134ad565b6000601f83116001811461355a5760008415613548578287013590505b6135528582612dff565b8655506135ba565b601f19841661356886613498565b60005b828110156135905784890135825560018201915060208501945060208101905061356b565b868310156135ad57848901356135a9601f891682612de1565b8355505b6001600288020188555050505b50505050505050565b60006135cf8385612a47565b93506135dc838584612264565b6135e5836121a7565b840190509392505050565b6000602082019050818103600083015261360b8184866135c3565b90509392505050565b7f50726f6f66206e6f742076657269666965640000000000000000000000000000600082015250565b600061364a6012836127e2565b915061365582613614565b602082019050919050565b600060208201905081810360008301526136798161363d565b9050919050565b7f456d70747920445f706f696e7473000000000000000000000000000000000000600082015250565b60006136b6600e836127e2565b91506136c182613680565b602082019050919050565b600060208201905081810360008301526136e5816136a9565b9050919050565b600082825260208201905092915050565b6000819050919050565b613713604083836130fa565b5050565b60006137238383613707565b60408301905092915050565b600082905092915050565b6000604082019050919050565b600061375383856136ec565b935061375e826136fd565b8060005b8581101561379757613774828461372f565b61377e8882613717565b97506137898361373a565b925050600181019050613762565b5085925050509392505050565b600060208201905081810360008301526137bf818486613747565b90509392505050565b7f696e76616c69642061676772656761746f720000000000000000000000000000600082015250565b60006137fe6012836127e2565b9150613809826137c8565b602082019050919050565b6000602082019050818103600083015261382d816137f1565b9050919050565b600060029050919050565b600081905092915050565b6000819050919050565b61385d816122e3565b82525050565b600061386f8383613854565b60208301905092915050565b6000602082019050919050565b61389181613834565b61389b818461383f565b92506138a68261384a565b8060005b838110156138d75781516138be8782613863565b96506138c98361387b565b9250506001810190506138aa565b505050505050565b600060029050919050565b600081905092915050565b6000819050919050565b600081905092915050565b61391381613834565b61391d81846138ff565b92506139288261384a565b8060005b838110156139595781516139408782613863565b965061394b8361387b565b92505060018101905061392c565b505050505050565b600061396d838361390a565b60408301905092915050565b6000602082019050919050565b61398f816138df565b61399981846138ea565b92506139a4826138f5565b8060005b838110156139d55781516139bc8782613961565b96506139c783613979565b9250506001810190506139a8565b505050505050565b600060019050919050565b600081905092915050565b6000819050919050565b6000602082019050919050565b613a13816139dd565b613a1d81846139e8565b9250613a28826139f3565b8060005b83811015613a59578151613a408782613863565b9650613a4b836139fd565b925050600181019050613a2c565b505050505050565b600061012082019050613a776000830187613888565b613a846040830186613986565b613a9160c0830185613888565b613a9f610100830184613a0a565b95945050505050565b600081905092915050565b6000613abe82612a3c565b613ac88185613aa8565b9350613ad88185602086016127f3565b80840191505092915050565b6000613af08284613ab3565b915081905092915050565b613b048161267b565b8114613b0f57600080fd5b50565b600081519050613b2181613afb565b92915050565b600060208284031215613b3d57613b3c612193565b5b6000613b4b84828501613b12565b9150509291505056fea26469706673582212202d91a36321819dcd0e94c591b62447f211b2db81c9b3745ec68a3491572a9c5264736f6c63430008140033",
  "linkReferences": {},
  "deployedLinkReferences": {}
}